:03000000020800F3
:0C080000787FE4F6D8FD75810C020847F3
:050A09007590FE80FB6A
:030A0E00750C0163
:010A110022C2
:060A0200010B0A010A0AC3
:10088C00EFFD7C00640170037590FEED64024C700A
:10089C00037590FDED64034C70037590FBED6404DF
:1008AC004C70037590F7ED64054C70037590EFED8B
:1008BC0064064C70037590DFED64074C7003759003
:1008CC00BFED64084C700375907FED4C7003759010
:1008DC00FFED4C70037590FFED640B4C7002F590BE
:1008EC00ED64154C700375900FED64164C70037528
:0308FC00900F2238
:10095F00EF14601C14601E146020146022146024B5
:10096F0014602624FB6027240B70267580FF8024DB
:10097F007580FE801F7580FD801A7580FB80157550
:10098F0080F780107580EF800B7580DF8006E4F5AF
:0E099F0080C2A722AF0B1209CFD2A7C2A72297
:1008FF00EFB40A00505990090CF828287302092AFE
:10090F0002092F02093402093902093E0209430282
:10091F00094802094D02095202095775803F802B81
:10092F00758006802675805B802175804F801C75D1
:10093F008066801775806D801275807D800D758043
:10094F0007800875807F800375806FD2A6C2A622AC
:0209AD008F08B1
:1009AF00E4F509E5082401FFE433FEC3E5099FEEF2
:0F09BF006480F874809850071209E9050980E4F4
:0109CE002206
:0E09E90000007F057E347DC3DDFEDEFCDFFAFC
:0109F70022DD
:0A09F800D2A07F901209CFC2A02206
:1009CF00E4FEEEC39F5012E4FDEDC394787480945F
:0909DF008050030D80F30E80E945
:0109E80022EC
:10080C00020A09E493A3F8E493A34003F68001F2EF
:10081C0008DFF48029E493A3F85407240CC8C333ED
:10082C00C4540F4420C8834004F456800146F6DFBC
:10083C00E4800B0102040810204080900A02E47E40
:10084C00019360BCA3FF543F30E509541FFEE493B1
:10085C00A360010ECF54C025E060A840B8E493A378
:10086C00FAE493A3F8E493A3C8C582C8CAC583CAA3
:10087C00F0A3C8C582C8CAC583CADFE9DEE780BE5B
:010A080000ED
:00000001FF
