:030000000208A053
:0C08A000787FE4F6D8FD75810D0208E7B2
:060AF600010B0A01090AD0
:0A0AE400D2A07F90120ABBC2A0222C
:020A99008F0CC0
:100A9B00E4F50DE50C2401FFE433FEC3E50D9FEEF9
:0F0AAB006480F87480985007120AD5050D80E416
:010ABA002219
:0E0AD50000007F057E347DC3DDFEDEFCDFFA0F
:010AE30022F0
:100ABB00E4FEEEC39F5012E4FDEDC3947874809472
:090ACB008050030D80F30E80E958
:010AD40022FF
:10092C00EFFD7C00640170037590FEED64024C7069
:10093C00037590FDED64034C70037590FBED64043E
:10094C004C70037590F7ED64054C70037590EFEDEA
:10095C0064064C70037590DFED64074C7003759062
:10096C00BFED64084C700375907FED4C700375906F
:10097C00FFED4C70037590FFED640B4C7002F5901D
:10098C00ED64154C700375900FED64164C70037587
:03099C00900F2297
:1009FF00EF14601C14601E14602014602214602415
:100A0F0014602624FB6027240B70267580FF80243A
:100A1F007580FE801F7580FD801A7580FB801575AF
:100A2F0080F780107580EF800B7580DF8006E4F50E
:0E0A3F0080C2A722AF0B120ABBD2A7C2A72209
:10099F00EFB40A0050599009ACF82828730209CA1D
:1009AF000209CF0209D40209D90209DE0209E302C2
:1009BF0009E80209ED0209F20209F775803F802B61
:1009CF00758006802675805B802175804F801C7531
:1009DF008066801775806D801275807D800D7580A3
:1009EF0007800875807F800375806FD2A6C2A6220C
:080AEE00120A4DAF08020800D6
:100A4D0075B0F0AFB0EF64F0601B7F0A120ABBAF58
:100A5D00B0EF64F0600FE5B0440FFF75B00FE5B077
:050A6D0044F05FF508F4
:010A72002261
:10080000EF120A7308927708857B08707D08507E86
:10081000088AB70885BB0868BD0848BE0885D708A0
:1008200080DB0860DD0840DE0885E70878EB0858C3
:10083000ED0838EE0000089A850A90750A01805D7F
:10084000850A90750A028055850A90750A03804DC5
:10085000850A90750A048045850A90750A05803DD1
:10086000850A90750A068035850A90750A07802DDD
:10087000850A90750A088025850A90750A09801DE9
:10088000850A908015850A908013850A90750A2B39
:10089000800B850A90750A3D8003E4F50AAF0A22B1
:020AFD0080FE79
:1008AC00020AFDE493A3F8E493A34003F68001F25B
:1008BC0008DFF48029E493A3F85407240CC8C3334D
:1008CC00C4540F4420C8834004F456800146F6DF1C
:1008DC00E4800B0102040810204080900AF6E47EAC
:1008EC00019360BCA3FF543F30E509541FFEE49311
:1008FC00A360010ECF54C025E060A840B8E493A3D8
:10090C00FAE493A3F8E493A3C8C582C8CAC583CA02
:10091C00F0A3C8C582C8CAC583CADFE9DEE780BEBA
:010AFC0000F9
:100A7300D083D082F8E4937012740193700DA3A312
:100A830093F8740193F5828883E473740293686026
:060A9300EFA3A3A380DF26
:00000001FF
