:030000000209BA38
:0C09BA00787FE4F6D8FD758135020A0153
:100E1C00012A0A01270A011800012F07011B0701EB
:100E2C001900011A00012C00010A000126A0010D75
:040E3C0000012B0482
:0A0EA200D2A07F90120E63C2A022BE
:020E41008F34EC
:100E4300E4F535E5342401FFE433FEC3E5359FEED5
:0F0E53006480F87480985007120E93053580E480
:010E6200226D
:0E0E930000007F057E347DC3DDFEDEFCDFFA4D
:010EA100222E
:100E6300E4FEEEC39F5012E4FDEDC39478748094C6
:090E73008050030D80F30E80E9AC
:010E7C002253
:100B4400EFFD7C00640170037590FEED64024C704F
:100B5400037590FDED64034C70037590FBED640424
:100B64004C70037590F7ED64054C70037590EFEDD0
:100B740064064C70037590DFED64074C7003759048
:100B8400BFED64084C700375907FED4C7003759055
:100B9400FFED4C70037590FFED640B4C7002F59003
:100BA400ED64154C700375900FED64164C7003756D
:030BB400900F227D
:100C8800EF14601C14601E14602014602214602489
:100C980014602624FB6027240B70267580FF8024AF
:100CA8007580FE801F7580FD801A7580FB80157524
:100CB80080F780107580EF800B7580DF8006E4F583
:0E0CC80080C2A722AF2A120E63D2A7C2A722B3
:100BB700EF2492605E246EB40A00505E900BCAF870
:100BC700282873020BE8020BED020BF2020BF70267
:100BD7000BFC020C01020C06020C0B020C10020C9F
:100BE7001575803F8030758006802B75805B802669
:100BF70075804F8021758066801C75806D801775A4
:100C0700807D8012758007800D75807F80087580D4
:0A0C17006F8003758008D2A6C2A604
:010C210022B0
:080EAC00120DF6AF09020A461F
:100DF60075B0F0AFB0EF64F0601B7F0A120E63AF00
:100E0600B0EF64F0600FE5B0440FFF75B00FE5B0CA
:050E160044F05FF50946
:010E1B0022B4
:100A4600EF12093F0AC4770AB07B0AA17D0A8D7EA0
:100A56000ABFB70AABBB0A9CBD0A88BE0ABAD70A48
:100A6600ABDB0A97DD0A83DE0AB5E70AA6EB0A9234
:100A7600ED0A7EEE00000AC9752801804975280234
:100A86008044752803803F752804803A75280580C0
:100A9600357528068030752807802B75280880262E
:100AA600752809802175280A801C75280B80177502
:100AB600280D801275280E800D75280F8008752860
:090AC600108003E4F528AF28229A
:060EBC00120DF6020DA16B
:100DA100D3E509940074809480401FE52824FE60F7
:100DB1000E14600F1460102403700F752901227541
:0B0DC100290222752903227529042253
:080EB400E4F5B0F509F5282270
:010EC200220D
:100DCC00E4F50AE50AC3952650F6120C22120ACF56
:100DDC00120D60120800120E7DE50A75F01484E500
:0A0DEC00F07003630DFF050A80D9C3
:100C2200120EACE51814601E14602B14603E24FBF7
:100C320050532408704AD3E528940074809480406D
:100C4200447F01020CD6D3E528940074809480403E
:100C5200348528198027120EACD3E52894007480BD
:100C620094804021120EBC85292C8011120EACD327
:100C7200E528940074809480400B85281A020EB4F3
:060C8200E4F528F518223C
:060ACF00E51864047058F4
:100AD500F530851931F532851A33E52C24FE601879
:100AE50014602414602E2403703BE5312533F52E64
:100AF500E5303532F52D8030C3E5319533F52EE5FA
:100B0500309532F52D8021AC32AD33AE30AF311298
:100B15000909800BAC32AD33AE30AF311208F78E18
:080B25002D8F2E8003751804CA
:100B2D00D3E52E9400E52D6480948040057F051259
:070B3D000CD6AE2DAF2E22F5
:060D6000E5186405703A7D
:100D6600852D0B852E0C120D1CD3E5309404748052
:100D76009480501CE53025E0241CF8E6FE08E6FFCA
:100D8600E53025E0240EF8A60608A607053080D92A
:0A0D9600E4F52DF52E7F06120CD6B1
:010DA0002230
:10080000E518B4080040030208ED900811F8282804
:100810007302082902083902085B02087C02089D5D
:100820000208F20208B30208D37F0B120C88E50D10
:1008300060030208F2FF0208E87F01120C88E50D50
:100840007005AF19120BB7E50DF470057F6E120B32
:10085000B77F06120C88AF1A0208E8E50D70147F06
:1008600004120C88AF2C120BB77F05120C88AF2C2A
:10087000120BB7E50DF4707A7F6E806C7F06120C58
:1008800088E50D7005AF1A120BB7E50DF470057F02
:100890006E120BB77F01120C88AF19804B7F0B12C1
:1008A0000C88E50D7004FF120BB7E50DF470437F63
:1008B0006E80357C06ECC39403748094804033AF23
:1008C00004120C88EC25E0240EF808E6FF120BB7A2
:1008D0001C80E27F0B120C88E50D70057F01120B66
:1008E000B7E50DF4700C7F6E120BB78005AF1B12CD
:0708F0000CD6AF18020B4407
:100E7D00120EACE528640A700C0518E518C3952F01
:060E8D004003E4F5182209
:100CD600EFB40800503C900CE3F8282873020CFB94
:100CE600020CFD020D01020D05020D09020D0D0299
:100CF6000D11020D15801B7518012275180222753B
:100D0600180322751804227518052275180622750F
:060D16001807E4F51822A5
:0F0D1C00AB2B7A00D3EB9400EA648094804030D4
:100D2B00AE0BAF0C7C007D0A1209098C318D32EBB6
:100D3B0025E0241CF8A63108A632AE0BAF0C7C00C4
:090D4B007D0A1209098E0B8F0CC0
:0B0D5400EB1B70C81A80C57E007F1CDE
:010D5F002271
:1009C600020DCCE493A3F8E493A34003F68001F26E
:1009D60008DFF48029E493A3F85407240CC8C33332
:1009E600C4540F4420C8834004F456800146F6DF01
:1009F600E4800B0102040810204080900E1CE47E67
:100A0600019360BCA3FF543F30E509541FFEE493F5
:100A1600A360010ECF54C025E060A840B8E493A3BC
:100A2600FAE493A3F8E493A3C8C582C8CAC583CAE7
:100A3600F0A3C8C582C8CAC583CADFE9DEE780BE9F
:010E400000B1
:1008F700EF8DF0A4A8F0CF8CF0A428CE8DF0A42E15
:02090700FE22CE
:10090900C2D5EC30E709B2D5E4C39DFDE49CFCEE09
:1009190030E715B2D5E4C39FFFE49EFE120965C313
:10092900E49DFDE49CFC800312096530D507C3E40E
:060939009FFFE49EFE2278
:10093F00D083D082F8E4937012740193700DA3A347
:10094F0093F8740193F5828883E47374029368605B
:06095F00EFA3A3A380DF5B
:10096500BC000BBE0029EF8DF084FFADF022E4CC76
:10097500F875F008EF2FFFEE33FEEC33FCEE9DEC3F
:10098500984005FCEE9DFE0FD5F0E9E4CEFD22ED85
:10099500F8F5F0EE8420D21CFEADF075F008EF2FCF
:1009A500FFED33FD4007985006D5F0F222C398FDC0
:0509B5000FD5F0EA225D
:00000001FF
