:03000000020800F3
:0C080000787FE4F6D8FD75810D020847F2
:060ADC00010B0A01090AEA
:0A0ACA00D2A07F90120A92C2A0226F
:020A70008F0CE9
:100A7200E4F50DE50C2401FFE433FEC3E50D9FEE22
:0F0A82006480F87480985007120AAC050D80E468
:010A91002242
:0E0AAC0000007F057E347DC3DDFEDEFCDFFA38
:010ABA002219
:100A9200E4FEEEC39F5012E4FDEDC394787480949B
:090AA2008050030D80F30E80E981
:010AAB002228
:10090300EFFD7C00640170037590FEED64024C7092
:10091300037590FDED64034C70037590FBED640467
:100923004C70037590F7ED64054C70037590EFED13
:1009330064064C70037590DFED64074C700375908B
:10094300BFED64084C700375907FED4C7003759098
:10095300FFED4C70037590FFED640B4C7002F59046
:10096300ED64154C700375900FED64164C700375B0
:03097300900F22C0
:1009D600EF14601C14601E1460201460221460243E
:1009E60014602624FB6027240B70267580FF802464
:1009F6007580FE801F7580FD801A7580FB801575D9
:100A060080F780107580EF800B7580DF8006E4F537
:0E0A160080C2A722AF0B120A92D2A7C2A7225B
:10097600EFB40A005059900983F82828730209A198
:100986000209A60209AB0209B00209B50209BA02B8
:1009960009BF0209C40209C90209CE75803F802B2E
:1009A600758006802675805B802175804F801C755A
:1009B6008066801775806D801275807D800D7580CC
:1009C60007800875807F800375806FD2A6C2A62235
:080AD400120A24AF0802088C8D
:100A240075B0F0AFB0EF64F0601B7F0A120A92AFAA
:100A3400B0EF64F0600FE5B0440FFF75B00FE5B0A0
:050A440044F05FF5081D
:010A4900228A
:10088C00EF120A4A08F87709007B08E77D08D37E47
:10089C0008F3B70900BB08E2BD08CEBE0900D708B3
:1008AC00F1DB08DDDD08C9DE0900E708ECEB08D850
:1008BC00ED08C4EE000008FD750A018037750A02C8
:1008CC008032750A03802D750A048028750A05800C
:1008DC0023750A06801E750A078019750A0880148C
:1008EC00750A09800F800A750A2B8008750A3D80ED
:0708FC0003E4F50AAF0A2234
:0F0ABB00120AD47F011209D6AF0A12097680F110
:10080C00020ABBE493A3F8E493A34003F68001F23D
:10081C0008DFF48029E493A3F85407240CC8C333ED
:10082C00C4540F4420C8834004F456800146F6DFBC
:10083C00E4800B0102040810204080900ADCE47E66
:10084C00019360BCA3FF543F30E509541FFEE493B1
:10085C00A360010ECF54C025E060A840B8E493A378
:10086C00FAE493A3F8E493A3C8C582C8CAC583CAA3
:10087C00F0A3C8C582C8CAC583CADFE9DEE780BE5B
:010AE2000013
:100A4A00D083D082F8E4937012740193700DA3A33B
:100A5A0093F8740193F5828883E47374029368604F
:060A6A00EFA3A3A380DF4F
:00000001FF
