:030000000208965D
:0C089600787FE4F6D8FD7581200208DDB3
:1009C2000A103F065B4F666D7D077F6F0120F001C5
:0809D2000E0F010900010A01EA
:100922008520B0E5B0652060F77F0A1209DBE5B0EB
:1009320065206021E520F445B0F51E850EB0E50E78
:10094200F445B0F51F750901E4F50AE51E551FF5DA
:100952001CFF120800E5096401700CE50A700885A5
:10096200080BAF081209F1E50A64017010E509707D
:100972000C85080CF509F50AAF081209F1E508B46F
:100982002B06E4F509750A01E508643D7092E50B52
:0A099200250CF51DFF1209F1808607
:1009DB00AD071FED600FE4FEEEC394787480948036
:0509EB0050EE0E80F348
:0109F00022E4
:10080000EF12099C088677087B7B08697D084D7E7E
:10081000087FB7087BBB0862BD0846BE087BD708C7
:1008200077DB085BDD083FDE087BE70870EB0854E8
:10083000ED0838EE0000088D8F9075080180548F08
:1008400090750802804D8F9075080380468F9075D3
:100850000804803F8F9075080580388F90750806D2
:1008600080318F90750807802A8F90750808802343
:100870008F90750809801C8F9080158F9080148F41
:100880009075082B800D8F9075083D80067590FF40
:06089000E4F508AF0822A8
:1009F1007580FED2A7C2A774102FF8E6F580D2A6A3
:030A0100C2A62268
:1008A200020922E493A3F8E493A34003F68001F241
:1008B20008DFF48029E493A3F85407240CC8C33357
:1008C200C4540F4420C8834004F456800146F6DF26
:1008D200E4800B01020408102040809009C2E47EEB
:1008E200019360BCA3FF543F30E509541FFEE4931B
:1008F200A360010ECF54C025E060A840B8E493A3E2
:10090200FAE493A3F8E493A3C8C582C8CAC583CA0C
:10091200F0A3C8C582C8CAC583CADFE9DEE780BEC4
:0109DA00001C
:10099C00D083D082F8E4937012740193700DA3A3EA
:1009AC0093F8740193F5828883E4737402936860FE
:0609BC00EFA3A3A380DFFE
:00000001FF
