:030000000208965D
:0C089600787FE4F6D8FD7581260208DDAD
:100ABA000A103F065B4F666D7D077F6F0120F001CC
:080ACA000E0F010900010A01F1
:100A430075B0F0AFB0EF64F060F67F0A120AF3AF4F
:100A5300B0EF64F060EAE5B0440FF52575B00FE53B
:0F0A6300B044F0F5265525F51CFF12080080D190
:100AF300AD071FED600FE4FEEEC39478748094801D
:050B030050EE0E80F32E
:010B080022CA
:10080000EF120A72088677087B7B08697D084D7EA7
:10081000087FB7087BBB0862BD0846BE087BD708C7
:1008200077DB085BDD083FDE087BE70870EB0854E8
:10083000ED0838EE0000088D8F9075080180548F08
:1008400090750802804D8F9075080380468F9075D3
:100850000804803F8F9075080580388F90750806D2
:1008600080318F90750807802A8F90750808802343
:100870008F90750809801C8F9080158F9080148F41
:100880009075082B800D8F9075083D80067590FF40
:06089000E4F508AF0822A8
:100B09007580FED2A7C2A774102FF8E6F580D2A689
:030B1900C2A6224F
:060AD20001240A01230AC1
:10092200EFFD7C00640170037590FEED64024C7073
:10093200037590FDED64034C70037590FBED640448
:100942004C70037590F7ED64054C70037590EFEDF4
:1009520064064C70037590DFED64074C700375906C
:10096200BFED64084C700375907FED4C7003759079
:10097200FFED4C70037590FFED640B4C7002F59027
:10098200ED64154C700375900FED64164C70037591
:03099200900F22A1
:1009F500EF14601C14601E1460201460221460241F
:100A050014602624FB6027240B70267580FF802444
:100A15007580FE801F7580FD801A7580FB801575B9
:100A250080F780107580EF800B7580DF8006E4F518
:0E0A350080C2A722AF24120AD9D2A7C2A722DC
:10099500EFB40A0050599009A2F82828730209C03B
:1009A5000209C50209CA0209CF0209D40209D902FE
:1009B50009DE0209E30209E80209ED75803F802B93
:1009C500758006802675805B802175804F801C753B
:1009D5008066801775806D801275807D800D7580AD
:1009E50007800875807F800375806FD2A6C2A62216
:020A98008F21AC
:100A9A00E4F522E5212401FFE433FEC3E5229FEEBB
:0F0AAA006480F87480985007120B1C052280E4BA
:010AB900221A
:0E0B1C0000007F057E347DC3DDFEDEFCDFFAC7
:010B2A0022A8
:0A0B2B00D2A07F90120AD9C2A022C6
:100AD900E4FEEEC39F5012E4FDEDC3947874809454
:090AE9008050030D80F30E80E93A
:010AF20022E1
:1008A200020A43E493A3F8E493A34003F68001F21F
:1008B20008DFF48029E493A3F85407240CC8C33357
:1008C200C4540F4420C8834004F456800146F6DF26
:1008D200E4800B0102040810204080900ABAE47EF2
:1008E200019360BCA3FF543F30E509541FFEE4931B
:1008F200A360010ECF54C025E060A840B8E493A3E2
:10090200FAE493A3F8E493A3C8C582C8CAC583CA0C
:10091200F0A3C8C582C8CAC583CADFE9DEE780BEC4
:010AD800001D
:100A7200D083D082F8E4937012740193700DA3A313
:100A820093F8740193F5828883E473740293686027
:060A9200EFA3A3A380DF27
:00000001FF
