:030000000208C132
:0C08C100787FE4F6D8FD75816E0209080E
:1008000002440006024A005B024E004F025200669C
:100810000256006D025A007D025E00070262007FF0
:100820000266006F0240003F02300006023200AD57
:100830000234002F023600660238006B023A00EBE9
:10084000023C000E023E00EF0242006F022E00CF7B
:10085000024800FE024C00FD025000FB025400F76B
:10086000025800EF025C00DF026000BF0264007FFC
:1008700002240000021200FF020E000F021000F01E
:10088000022A0000022800010226000302220007BB
:100890000220000F021E001F021C003F021A007FF0
:1008A000021800FF021600FC020800F3020A00CF43
:1008B000020C003F026B0001022C00010214000038
:070B4700D2A7C280C2A72261
:070B4E00D2A7C281C2A72259
:070B5500D2A7C282C2A72251
:070B5C00D2A7C283C2A72249
:070B6300D2A7C284C2A72241
:070B6A00D2A7C285C2A72239
:080AF700D2A6854580C2A622AB
:080AFF00D2A6854B80C2A6229D
:080B0700D2A6854F80C2A62290
:080B0F00D2A6855380C2A62284
:080B1700D2A6855780C2A62278
:080B1F00D2A6855B80C2A6226C
:080B2700D2A6855F80C2A62260
:080B2F00D2A6856380C2A62254
:080B3700D2A6856780C2A62248
:080B3F00D2A6854180C2A62266
:050A6300120AFF7F01F3
:020A68008F6D90
:100A6A00E4F56EE56D2401FFE433FEC3E56E9FEE07
:0F0A7A006480F87480985007120ADE056E80E4DD
:010A8900224A
:0E0ADE0000007F057E347DC3DDFEDEFCDFFA06
:010AEC0022E7
:0A0AED00D2A07F90120AABC2A02233
:100AAB00E4FEEEC39F5012E4FDEDC3947874809482
:090ABB008050030D80F30E80E968
:010AC400220F
:100A8A00851390E514451524FF92A07F01120A6888
:100A9A00120A01120AC585099012094D120AC58067
:010AAA00DF6C
:1009D000120B47850990120B177F01120A68120B40
:1009E0000F7F01120A68120B077F01120A68120AB0
:1009F00063120AF77F01120A68120B3F7F01020A95
:010A0000688D
:100A0100120B47851790120B177F01120A68120B00
:100A11000F7F01120A68120B077F01120A68120A7E
:100A210063120AF77F01120A68120B3F7F01020A63
:010A3100685C
:100AC500120B47850B90120A63120AF77F01120A6F
:090AD50068120B3F7F01020A6860
:100A3200120B47850D90120B177F01120A68120BD9
:100A42000F7F01120A68120B077F01120A68120A4D
:100A520063120AF77F01120A68120B3F7F01020A32
:010A6200682B
:10094D00120B47120B3FE52C452D24FF92A07F0281
:10095D00120A68E514451524FF92A07FE8120AAB30
:10096D00120B37120AED7F01120A68120B2F120AB1
:10097D00ED7F01120A68120B27120AED7F01120A90
:10098D0068120B1F120AED7F01120A68120B171263
:10099D000AED7F01120A68120B0F120AED7F011288
:1009AD000A68120B07120AED7F01120A68120AFF7C
:1009BD00120AED7F01120A68120AF7120AED7F0181
:0309CD00020A68B3
:1008CD00020A8AE493A3F8E493A34003F68001F2AD
:1008DD0008DFF48029E493A3F85407240CC8C3332C
:1008ED00C4540F4420C8834004F456800146F6DFFB
:1008FD00E4800B0102040810204080900800E47E83
:10090D00019360BCA3FF543F30E509541FFEE493EF
:10091D00A360010ECF54C025E060A840B8E493A3B6
:10092D00FAE493A3F8E493A3C8C582C8CAC583CAE1
:10093D00F0A3C8C582C8CAC583CADFE9DEE780BE99
:0108C0000037
:00000001FF
