:030000000208ED06
:0C08ED00787FE4F6D8FD75811202093412
:100AFC00010D0A010C0A010900010A03010B000196
:050B0C000E2B010800A2
:10097900EFFD7C00640170037590FEED64024C701C
:10098900037590FDED64034C70037590FBED6404F1
:100999004C70037590F7ED64054C70037590EFED9D
:1009A90064064C70037590DFED64074C7003759015
:1009B900BFED64084C700375907FED4C7003759022
:1009C900FFED4C70037590FFED640B4C7002F590D0
:1009D900ED64154C700375900FED64164C7003753A
:0309E900900F224A
:100A4C00EF14601C14601E146020146022146024C7
:100A5C0014602624FB6027240B70267580FF8024ED
:100A6C007580FE801F7580FD801A7580FB80157562
:100A7C0080F780107580EF800B7580DF8006E4F5C1
:0E0A8C0080C2A722AF0D120AE2D2A7C2A72293
:1009EC00EFB40A0050599009F9F8282873020A1735
:1009FC00020A1C020A21020A26020A2B020A3002EF
:100A0C000A35020A3A020A3F020A4475803F802BDB
:100A1C00758006802675805B802175804F801C75E3
:100A2C008066801775806D801275807D800D758055
:100A3C0007800875807F800375806FD2A6C2A622BE
:020AC0008F0F96
:100AC200E4F510E50F2401FFE433FEC3E5109FEEC9
:0F0AD2006480F87480985007120B23051080E49D
:010AE10022F2
:0E0B230000007F057E347DC3DDFEDEFCDFFAC0
:010B310022A1
:0A0B4800D2A07F90120AE2C2A022A0
:100AE200E4FEEEC39F5012E4FDEDC394787480944B
:090AF2008050030D80F30E80E931
:010AFB0022D8
:0B0B3200120800120B52120B1280F58B
:10080000E4F511F512AFB0EF70030208ECAFB0EFF2
:1008100070030208D9AF09EF6004640270EF85B07D
:1008200011E511120A9A08C57708BE7B08A07D0859
:10083000787E08BEB708BEBB0896BD086EBE08BE6F
:10084000D708B4DB088CDD0864DE08BEE708AAEB35
:100850000882ED085AEE000008D07F0B1209797566
:10086000120180667F0B120979751202805C7F0B82
:1008700012097975120380527F0B120979751204DF
:1008800080487F0B120979751205803E7F0B120993
:100890007975120680347F0B120979751207802A48
:1008A0007F0B12097975120880207F0B1209797568
:1008B000120980167F0B120979E4F512800C7F0B68
:1008C00012097980057F0B120979120B3D02081578
:1008D0007590FFE4F512020815AF097E00EF700372
:0C08E00085120AEF64024E700385120BB3
:0108EC0022E9
:100B1200E509700C7F01120A4CAF0A1209EC80F051
:010B220022B0
:0B0B3D000509E50964047002F50922B7
:010B52002280
:1008F900020B32E493A3F8E493A34003F68001F2D8
:1009090008DFF48029E493A3F85407240CC8C333FF
:10091900C4540F4420C8834004F456800146F6DFCE
:10092900E4800B0102040810204080900AFCE47E58
:10093900019360BCA3FF543F30E509541FFEE493C3
:10094900A360010ECF54C025E060A840B8E493A38A
:10095900FAE493A3F8E493A3C8C582C8CAC583CAB5
:10096900F0A3C8C582C8CAC583CADFE9DEE780BE6D
:010B110000E3
:100A9A00D083D082F8E4937012740193700DA3A3EB
:100AAA0093F8740193F5828883E4737402936860FF
:060ABA00EFA3A3A380DFFF
:00000001FF
