:03000000020800F3
:0C080000787FE4F6D8FD758128020847D7
:1008E000021400FE021700FD021A00FB021D00F7B1
:1008F000021F00EF022100DF022300BF0225007F5C
:10090000020E0000020C00FF0208000F020A00F0B5
:10088C00E4F527F528850F90AF28120911850D90F6
:10089C00AF281209110528E52870020527C39432E8
:1008AC00E5276480948040DDE4F527F528C3E5282E
:1008BC009404E5276480948050C68509907FE812E3
:1008CC000911850B907FE81209110528E52870DDC8
:0408DC00052780D993
:10091100E4F519E519C39F5016E4F51CE51CC394D1
:1009210078748094805004051C80F1051980E422BC
:10080C0002088CE493A3F8E493A34003F68001F26E
:10081C0008DFF48029E493A3F85407240CC8C333ED
:10082C00C4540F4420C8834004F456800146F6DFBC
:10083C00E4800B01020408102040809008E0E47E64
:10084C00019360BCA3FF543F30E509541FFEE493B1
:10085C00A360010ECF54C025E060A840B8E493A378
:10086C00FAE493A3F8E493A3C8C582C8CAC583CAA3
:10087C00F0A3C8C582C8CAC583CADFE9DEE780BE5B
:0109100000E6
:00000001FF
