:03000000020800F3
:0C080000787FE4F6D8FD758128020847D7
:10088C00022703E8021400FE021700FD021A00FB07
:10089C00021D00F7021F00EF022100DF022300BF40
:1008AC000225007F020E0000020C00FF0208000F60
:0408BC00020A00F03C
:1008E100D292AF281208C1C292AF281208C180F07B
:1008C100E4F519E519C39F5016E4F51CE51CC39422
:1008D10078748094805004051C80F1051980E4220D
:10080C000208E1E493A3F8E493A34003F68001F219
:10081C0008DFF48029E493A3F85407240CC8C333ED
:10082C00C4540F4420C8834004F456800146F6DFBC
:10083C00E4800B010204081020408090088CE47EB8
:10084C00019360BCA3FF543F30E509541FFEE493B1
:10085C00A360010ECF54C025E060A840B8E493A378
:10086C00FAE493A3F8E493A3C8C582C8CAC583CAA3
:10087C00F0A3C8C582C8CAC583CADFE9DEE780BE5B
:0108C0000037
:00000001FF
