:030000000209668C
:0C096600787FE4F6D8FD7581770209ADBA
:10080000023B000A0225000A020E0258026C00FF99
:10081000026600FE026800FD026A00FB026E00F73D
:10082000027000EF027200DF027400000240000656
:100830000244005B0248004F024C00660250006D0B
:100840000256007D025B0007025F007F0263006FBB
:10085000023E003F024200FE024600FD024A00FB4B
:10086000024E00F7025400EF025900DF025D00BFA4
:100870000261007F02330000021A00FF0216000F1F
:10088000021800F0023900000237000102350003AF
:1008900002310007022F000F022D001F022B003F24
:1008A0000229007F022700FF021F00FC020800F35C
:1008B000020C00CF0210003F02140000021D00AA2B
:0408C0000223007897
:1009F200EFFD7C0064017003854390ED64024C704E
:100A020003854790ED64034C7003854B90ED6404BD
:100A12004C7003854F90ED64054C7003855590ED45
:100A220064064C7003855A90ED64074C7003855E32
:100A320090ED64084C7003856290ED640B4C70037A
:100A4200853490ED4C7003851B90ED4C7003851B33
:100A520090ED64154C7003851790ED64164C70038D
:040A62008519902240
:100B68008F76EF7003120C60E57664017003120C47
:100B7800A6E57664027003120CAEE5766403700392
:100B8800120C6CE57664047003120C78E576640543
:0F0B98007003120C84E57664067003120C902231
:100A66008F76EF64017003120CB6E57664027003AC
:100A7600120CBEE57664037003120CC6E5766404B8
:100A86007003120CCEE57664057003120CD6E5767B
:100A960064067003120CDEE57664077003120CE63A
:100AA600E57664087003120CEEE5766409700312AD
:0A0AB6000CF6E5767003120CFE2228
:0C0C6000856D80D2A7C2A7AF3C020C1922
:080CA600856780D2A7C2A722D6
:080CAE00856980D2A7C2A722CC
:0C0C6C00856B80D2A7C2A7AF3C020C1918
:0C0C7800856F80D2A7C2A7AF3C020C1908
:0C0C8400857180D2A7C2A7AF3C020C19FA
:0C0C9000857380D2A7C2A7AF3C020C19EC
:080CB600854180D2A6C2A622EE
:080CBE00D2A6854580C2A622E2
:080CC600D2A6854980C2A622D6
:080CCE00D2A6854D80C2A622CA
:080CD600D2A6855180C2A622BE
:080CDE00D2A6855780C2A622B0
:080CE600D2A6855C80C2A622A3
:080CEE00D2A6856080C2A62297
:080CF600D2A6856480C2A6228B
:080CFE00D2A6853F80C2A622A8
:020BD6008F7618
:100BD800E4F577E5762401FFE433FEC3E5779FEE7D
:0F0BE8006480F87480985007120C33057780E40E
:010BF70022DB
:0E0C330000007F057E347DC3DDFEDEFCDFFAAF
:010C41002290
:0A0C9C00D2A07F90120C19C2A02212
:100C1900E4FEEEC39F5012E4FDEDC3947874809412
:090C29008050030D80F30E80E9F8
:010C3200229F
:100BF800E4F522C2A0755305755806751C32120B10
:100C08001A20B7FD7F64120C19752201120BA780F8
:010C1800F0EB
:100B1A00E4F512E51270460515E51570020514AEE6
:100B2A0014FFEE3395E0FDFC7B807A967998780085
:100B3A00C31208FB5005E4F514F515E51CFD7C000D
:100B4A00AE14AF151208C5ED4C7003120C427F01AA
:0E0B5A00120C19120C517F01120C1980B622D8
:0F0C42007F01120B68AF53120A667F05020C196F
:0F0C51007F02120B68AF58120A667F05020C195A
:100AC000E4F513E51370507F01120B68AF58120A5A
:100AD000667F0B1209F2AF1E120C19E4FF120B68AD
:100AE000E4FF1209F2AF1E120C1920B603751301B0
:100AF00020B5D07F01120B68AF58120A667F0B1227
:100B000009F2AF24120C1985580BE50B04F5586453
:0A0B10000A70DDF55880D9020AC012
:100BA700E5226401702830B419C2A0E4FF1209F2EB
:100BB7000F120BD6D2A07F0B1209F27F01120BD6B0
:0F0BC70080E4C2A0E4FF1209F2E4F52280D222FA
:10097200020BF8E493A3F8E493A34003F68001F298
:1009820008DFF48029E493A3F85407240CC8C33386
:10099200C4540F4420C8834004F456800146F6DF55
:1009A200E4800B0102040810204080900800E47EDD
:1009B200019360BCA3FF543F30E509541FFEE4934A
:1009C200A360010ECF54C025E060A840B8E493A311
:1009D200FAE493A3F8E493A3C8C582C8CAC583CA3C
:1009E200F0A3C8C582C8CAC583CADFE9DEE780BEF4
:0108C4000033
:1008C500C2D5EC30E709B2D5E4C39DFDE49CFCEE4E
:1008D50030E715B2D5E4C39FFFE49EFE120911C3AC
:1008E500E49DFDE49CFC800312091130D507C3E4A7
:0608F5009FFFE49EFE22BD
:1008FB00EB9FF5F0EA9E42F0E99D42F0EC6480C874
:06090B0064809845F02213
:10091100BC000BBE0029EF8DF084FFADF022E4CCCA
:10092100F875F008EF2FFFEE33FEEC33FCEE9DEC93
:10093100984005FCEE9DFE0FD5F0E9E4CEFD22EDD9
:10094100F8F5F0EE8420D21CFEADF075F008EF2F23
:10095100FFED33FD4007985006D5F0F222C398FD14
:050961000FD5F0EA22B1
:00000001FF
