:030000000208B53E
:0C08B500787FE4F6D8FD7581680208FC2D
:10080000024000060246005B024A004F024E0066AC
:100810000252006D0256007D025A0007025E007F00
:100820000262006F023C003F022C0006022E00AD67
:100830000230002F023200660234006B023600EBF9
:100840000238000E023A00EF023E006F022A00CF8B
:10085000024400FE024800FD024C00FB025000F77B
:10086000025400EF025800DF025C00BF0260007F0C
:1008700002220000021200FF020E000F021000F020
:1008800002280000022600010224000302200007C3
:10089000021E000F021C001F021A003F0218007FF8
:1008A000021600FF021400FC020800F3020A00CF47
:0408B000020C003FF7
:070A1200D2A7C280C2A72297
:070A1900D2A7C281C2A7228F
:070A2000D2A7C282C2A72287
:070A2700D2A7C283C2A7227F
:070A2E00D2A7C284C2A72277
:070A3500D2A7C285C2A7226F
:0809C200D2A6854180C2A622E5
:0809CA00D2A6854780C2A622D7
:0809D200D2A6854B80C2A622CB
:0809DA00D2A6854F80C2A622BF
:0809E200D2A6855380C2A622B3
:0809EA00D2A6855780C2A622A7
:0809F200D2A6855B80C2A6229B
:0809FA00D2A6855F80C2A6228F
:080A0200D2A6856380C2A62282
:080A0A00D2A6853D80C2A622A0
:02096D008F6792
:10096F00E4F568E5672401FFE433FEC3E5689FEE15
:0F097F006480F874809850071209A9056880E415
:01098E002246
:0E09A90000007F057E347DC3DDFEDEFCDFFA3C
:0109B700221D
:0A09B800D2A07F9012098FC2A02286
:10098F00E4FEEEC39F5012E4FDEDC394787480949F
:09099F008050030D80F30E80E985
:0109A800222C
:10094100D2A7120A12C2A77F6412098FD2A6120976
:10095100C2C2A612098FD2A7120A19C2A712098F01
:0C096100D2A6120A0AC2A612098F80D486
:1008C100020941E493A3F8E493A34003F68001F203
:1008D10008DFF48029E493A3F85407240CC8C33338
:1008E100C4540F4420C8834004F456800146F6DF07
:1008F100E4800B0102040810204080900800E47E8F
:10090100019360BCA3FF543F30E509541FFEE493FB
:10091100A360010ECF54C025E060A840B8E493A3C2
:10092100FAE493A3F8E493A3C8C582C8CAC583CAED
:10093100F0A3C8C582C8CAC583CADFE9DEE780BEA5
:0108B4000043
:00000001FF
