:030000000208E80B
:0C08E800787FE4F6D8FD75811202092F1C
:100AF700010D0A010C0A010900010A04010B00019A
:050B07000E2B010800A7
:10097400EFFD7C00640170037590FEED64024C7021
:10098400037590FDED64034C70037590FBED6404F6
:100994004C70037590F7ED64054C70037590EFEDA2
:1009A40064064C70037590DFED64074C700375901A
:1009B400BFED64084C700375907FED4C7003759027
:1009C400FFED4C70037590FFED640B4C7002F590D5
:1009D400ED64154C700375900FED64164C7003753F
:0309E400900F224F
:100A4700EF14601C14601E146020146022146024CC
:100A570014602624FB6027240B70267580FF8024F2
:100A67007580FE801F7580FD801A7580FB80157567
:100A770080F780107580EF800B7580DF8006E4F5C6
:0E0A870080C2A722AF0D120ADDD2A7C2A7229D
:1009E700EFB40A0050599009F4F8282873020A1244
:1009F700020A17020A1C020A21020A26020A2B020D
:100A07000A30020A35020A3A020A3F75803F802BF4
:100A1700758006802675805B802175804F801C75E8
:100A27008066801775806D801275807D800D75805A
:100A370007800875807F800375806FD2A6C2A622C3
:020ABB008F0F9B
:100ABD00E4F510E50F2401FFE433FEC3E5109FEECE
:0F0ACD006480F87480985007120B1E051080E4A7
:010ADC0022F7
:0E0B1E0000007F057E347DC3DDFEDEFCDFFAC5
:010B2C0022A6
:0A0B4300D2A07F90120ADDC2A022AA
:100ADD00E4FEEEC39F5012E4FDEDC3947874809450
:090AED008050030D80F30E80E936
:010AF60022DD
:0B0B2D00120800120B4D120B0D80F59A
:10080000E4F511F512AFB0EF70030208E7AFB0EFF7
:1008100070030208D4E50970F485B011E511120ADD
:100820009508C07708B97B089B7D08737E08B9B727
:1008300008B9BB0891BD0869BE08B9D708AFDB0885
:1008400087DD085FDE08B9E708A5EB087DED0855F0
:10085000EE000008CB7F0B12097475120180667FD1
:100860000B120974751202805C7F0B1209747512E9
:100870000380527F0B12097475120480487F0B129B
:100880000974751205803E7F0B120974751206807B
:10089000347F0B120974751207802A7F0B120974BA
:1008A00075120880207F0B12097475120980167F5B
:1008B0000B120974E4F512800C7F0B120974800589
:1008C0007F0B120974120B380208157590FFE4F5BE
:1008D00012020815AF097E00EF700385120AEF645B
:0708E000024E700385120BAC
:0108E70022EE
:100B0D00E509700C7F01120A47AF0A1209E780F060
:010B1D0022B5
:0B0B38000509E50964047002F50922BC
:010B4D002285
:1008F400020B2DE493A3F8E493A34003F68001F2E2
:1009040008DFF48029E493A3F85407240CC8C33304
:10091400C4540F4420C8834004F456800146F6DFD3
:10092400E4800B0102040810204080900AF7E47E62
:10093400019360BCA3FF543F30E509541FFEE493C8
:10094400A360010ECF54C025E060A840B8E493A38F
:10095400FAE493A3F8E493A3C8C582C8CAC583CABA
:10096400F0A3C8C582C8CAC583CADFE9DEE780BE72
:010B0C0000E8
:100A9500D083D082F8E4937012740193700DA3A3F0
:100AA50093F8740193F5828883E473740293686004
:060AB500EFA3A3A380DF04
:00000001FF
