:030000000208F201
:0C08F200787FE4F6D8FD75811202093908
:100B1A00010D0A010C0A010900010A04010B000176
:050B2A000E2B01080084
:10097E00EFFD7C00640170037590FEED64024C7017
:10098E00037590FDED64034C70037590FBED6404EC
:10099E004C70037590F7ED64054C70037590EFED98
:1009AE0064064C70037590DFED64074C7003759010
:1009BE00BFED64084C700375907FED4C700375901D
:1009CE00FFED4C70037590FFED640B4C7002F590CB
:1009DE00ED64154C700375900FED64164C70037535
:0309EE00900F2245
:100A5100EF14601C14601E146020146022146024C2
:100A610014602624FB6027240B70267580FF8024E8
:100A71007580FE801F7580FD801A7580FB8015755D
:100A810080F780107580EF800B7580DF8006E4F5BC
:0E0A910080C2A722AF0D120AE7D2A7C2A72289
:1009F100EFB40A0050599009FEF8282873020A1C26
:100A0100020A21020A26020A2B020A30020A3502D0
:100A11000A3A020A3F020A44020A4975803F802BC2
:100A2100758006802675805B802175804F801C75DE
:100A31008066801775806D801275807D800D758050
:100A410007800875807F800375806FD2A6C2A622B9
:020AC5008F0F91
:100AC700E4F510E50F2401FFE433FEC3E5109FEEC4
:0F0AD7006480F87480985007120000051080E4C6
:010AE60022ED
:0E0B410000007F057E347DC3DDFEDEFCDFFAA2
:010B4F002283
:0A0B5B00D2A07F90120AE7C2A02288
:100AE700E4FEEEC39F5012E4FDEDC3947874809446
:090AF7008050030D80F30E80E92C
:010B000022D2
:100B0100D2A375B0F0AFB0EF64F060F9C2A3AFB09B
:090B1100EF64F070F9D2A380EC4E
:10080000E4F511F5127F0112097EAFB0EFF4700329
:100810000208EEAFB0EFF470030208DBE50970F3F5
:1008200085B011E511120A9F08C77708C07B08A29E
:100830007D087A7E08C0B708C0BB0898BD0870BEA6
:1008400008C0D708B6DB088EDD0866DE08C0E708FA
:10085000ACEB0884ED085CEE000008D27F0B1209B7
:100860007E75120180667F0B12097E751202805C14
:100870007F0B12097E75120380527F0B12097E7561
:10088000120480487F0B12097E751205803E7F0B93
:1008900012097E75120680347F0B12097E751207CD
:1008A000802A7F0B12097E75120880207F0B1209A7
:1008B0007E75120980167F0B12097EE4F512800CFA
:1008C0007F0B12097E80057F0B12097E120B5002EE
:1008D000081C7590FFE4F51202081CAF097E00EFBA
:1008E000700385120AEF64024E700385120B75B017
:0108F000FF08
:0108F10022E4
:100B3000E509700C7F01120A51AF0A1209F180F029
:010B40002292
:0B0B50000509E50964047002F50922A4
:010B6500226D
:1008FE00020B01E493A3F8E493A34003F68001F204
:10090E0008DFF48029E493A3F85407240CC8C333FA
:10091E00C4540F4420C8834004F456800146F6DFC9
:10092E00E4800B0102040810204080900B1AE47E34
:10093E00019360BCA3FF543F30E509541FFEE493BE
:10094E00A360010ECF54C025E060A840B8E493A385
:10095E00FAE493A3F8E493A3C8C582C8CAC583CAB0
:10096E00F0A3C8C582C8CAC583CADFE9DEE780BE68
:010B2F0000C5
:100A9F00D083D082F8E4937012740193700DA3A3E6
:100AAF0093F8740193F5828883E4737402936860FA
:060ABF00EFA3A3A380DFFA
:00000001FF
