:030000000209F3FF
:0C09F300787FE4F6D8FD75812B020A3AEB
:0D0CAC00012101011E01012204020A0000C5
:0A0CBA00D2A07F90120C83C2A0228A
:020C61008F28DA
:100C6300E4F529E5282401FFE433FEC3E5299FEEDB
:0F0C73006480F87480985007120C9D052980E466
:010C8200224F
:0E0C9D0000007F057E347DC3DDFEDEFCDFFA45
:010CAB002226
:100C8300E4FEEEC39F5012E4FDEDC39478748094A8
:090C93008050030D80F30E80E98E
:010C9C002235
:100A7F00EFFD7C00640170037590FEED64024C7015
:100A8F00037590FDED64034C70037590FBED6404EA
:100A9F004C70037590F7ED64054C70037590EFED96
:100AAF0064064C70037590DFED64074C700375900E
:100ABF00BFED64084C700375907FED4C700375901B
:100ACF00FFED4C70037590FFED640B4C7002F590C9
:100ADF00ED64154C700375900FED64164C70037533
:030AEF00900F2243
:0F0B6200E52625E0240EF808E6FF120AF2AF267A
:100B7100EF14601C14601E146020146022146024A1
:100B810014602624FB6027240B70267580FF8024C7
:100B91007580FE801F7580FD801A7580FB8015753C
:100BA10080F780107580EF800B7580DF8006E4F59B
:0E0BB10080C2A722AF21120C83D2A7C2A722B6
:100AF200EF2492605E246EB40A005063900B05F8F6
:100B0200282873020B23020B28020B2D020B320240
:100B12000B37020B3C020B41020B46020B4B020B42
:100B22005075803F8030758006802B75805B8026F3
:100B320075804F8021758066801C75806D80177569
:100B4200807D8012758007800D75807F800875809A
:0F0B52006F8003758008D2A6C2A6AF1E120C8357
:010B61002271
:080CC400120C3BAF090208B15C
:100C3B0075B0F0AFB0EF64F0601B7F0A120C83AF9E
:100C4B00B0EF64F0600FE5B0440FFF75B00FE5B087
:050C5B0044F05FF50903
:010C60002271
:1008B100EF12083609457709257B090C7D08F87E7A
:1008C100093DB7091DBB0907BD08F3BE0935D709A5
:1008D10016DB0902DD08EEDE092DE70911EB08FD43
:1008E100ED08E9EE00000950751F018032751F0205
:1008F100802D751F038028751F048023751F0580B7
:100901001E751F068019751F078014751F08800F3B
:10091100751F09800AE4F51FF50A802E751F0B75F6
:100921000A008026751F0C750A00801E751F0D7543
:100931000A008016751F0E750A00800E751F0F754F
:100941000A008006751F10750A00750B018005E409
:07095100F50AF50BAF1F22B0
:060CD400120C3B020C10A3
:100C1000D3E509940074809480401FE51F24FE6092
:100C20000E14600F1460102403700F7520012275DC
:0B0C3000200222752003227520042200
:080CCC00E4F5B0F509F51F2263
:010CDA0022F7
:040BBF00AB07AA06D0
:100BC300852282758300D3E5829400E58364809453
:030BD3008040352A
:100BD6007C007D0AAF03AE021208008C2A8D2BAF73
:100BE60082EF25E0240EF8A62A08A62B7C007D0AB3
:0B0BF600AF03AE02120800AA06AB0716
:0E0C0100E582158270C2158380BE7E007F0ED4
:010C0F0022C2
:10095800E4F527752301D3E5239406748094805029
:100968000FE52325E0240EF8E4F608F6052380E6D3
:10097800752306C3E52394017480948040F2120C19
:10098800C4E50B6406450A7023120CC4752500756E
:100998002601C3E5269407E5256480948050E21279
:1009A8000B620526E52670EA052580E6E50B64015D
:1009B800450A7032120CC4752500752601120B62A7
:1009C8000526E52670020525C39407E5256480946D
:1009D8008040EA851F27AF27E52325E0240EF87617
:0B09E8000008A60780C6152302097B4B
:1009FF00020958E493A3F8E493A34003F68001F2AD
:100A0F0008DFF48029E493A3F85407240CC8C333F8
:100A1F00C4540F4420C8834004F456800146F6DFC7
:100A2F00E4800B0102040810204080900CACE47E9F
:100A3F00019360BCA3FF543F30E509541FFEE493BC
:100A4F00A360010ECF54C025E060A840B8E493A383
:100A5F00FAE493A3F8E493A3C8C582C8CAC583CAAE
:100A6F00F0A3C8C582C8CAC583CADFE9DEE780BE66
:010CB900003A
:10080000C2D5EC30E709B2D5E4C39DFDE49CFCEE13
:1008100030E715B2D5E4C39FFFE49EFE12085CC327
:10082000E49DFDE49CFC800312085C30D507C3E422
:060830009FFFE49EFE2282
:10083600D083D082F8E4937012740193700DA3A351
:1008460093F8740193F5828883E473740293686065
:06085600EFA3A3A380DF65
:10085C00BC000BBE0029EF8DF084FFADF022E4CC80
:10086C00F875F008EF2FFFEE33FEEC33FCEE9DEC49
:10087C00984005FCEE9DFE0FD5F0E9E4CEFD22ED8F
:10088C00F8F5F0EE8420D21CFEADF075F008EF2FD9
:10089C00FFED33FD4007985006D5F0F222C398FDCA
:0508AC000FD5F0EA2267
:00000001FF
